:1000000001308A00DD2900000A108A100A118207D7
:1000100028340C34013406344937E931E9306E3282
:100020006F172E170000C2346537F632EE34E4370E
:100030002100D334733AE5366110CC34733A6F0043
:10004000D037F432EE31E9302027693B6536A0180D
:100050000001D037F432EE31E9302027693B6536B4
:1000600020190001D037F432EE31E9302027693B06
:100070006536A0190001453A613861105617A03C59
:1000800020292E1D00002F3084008313000803193F
:1000900056280630F800F701F70B4C28F80B4B28D0
:1000A0007B30F700F70B5228800B49280800941387
:1000B0008C113C0893000230941B65288316141998
:1000C0005F280030111B01308312F80008003A0845
:1000D000003A03196F28013A03199228B628390EFD
:1000E000F700F030F70577082504BB00BC00572067
:1000F0000000390EF700F030F705770804382504C2
:10010000BB00BC0057200330F700F70B8528390EE1
:10011000F700F030F7057708FB392504BB00BC0079
:100120005720B628390EF700F030F7057708013868
:100130002504BB00BC0057200000390EF700F0304A
:10014000F7057708013804382504BB00BC005720A8
:100150000330F700F70BAA28390EF700F030F70547
:10016000770801382504BB00BC005720080083161F
:1001700011141118B92883122108BC005720360E1B
:10018000B8000F30B8053808B9003708BA00672042
:1001900036080F39B800B9003708BA00672083164F
:1001A00011151119D128831208000130B600B701CA
:1001B000B7200230AF0043200130A40008002B0814
:1001C000A1002D08A2002C08A3000B138B138B1B7E
:1001D000E6283230AF004320831611141118EE28A0
:1001E00083122108BC005720B901BA0167200F30E3
:1001F000AF0043200130AE002E08033C031C092948
:100200000330B900BA0167200530AF004320AE0AC1
:10021000FC280230B900BA0167200530AF00432046
:1002200083161115111912298312AE012E08033CF1
:10023000031C25292E080420AF00B600B701B72003
:100240000530AF004320AE0A1629D520C0308B04FC
:100250008A110A121C2A30082202031832292208A5
:10026000B10034293008B1003108013A031942299C
:10027000033A03194429013A03194729073A031994
:100280004A294D29B3014E294030B3004E2914307C
:10029000B3004E295430B3004E29B3012F08230276
:1002A000031855292308B20057292F08B20001303E
:1002B00032023307B40034088038B500B600B70105
:1002C000B72008002E080C3A03196D29063A0319C5
:1002D0006F29023A03197C298129D5208629A40A8D
:1002E00024082202031876290130A4000130AF004F
:1002F0002408B0002B2186291030B600B701B720A2
:1003000086292E08B6000130B700B72008000B0878
:10031000AB008B13831603178C170C14000000001E
:1003200083120313AB1B8B1703170C087F390319B8
:10033000DB290313AB0003170D080313AC000317ED
:100340000F080313AD002B08AE0062212C08031721
:100350008D0003132D0803178F0003130B08AE0045
:100360008B13831603178C170C14000000008312E4
:100370000313AE1B8B1703170C0D0E0D7F390319DA
:10038000DB290313AB0003170D080313AC0003179D
:100390000F080313AD002B08AE0062212C080317D1
:1003A0008D0003132D0803178F008D0A03198F0A80
:1003B0000313872903170313080003081F39830059
:1003C000FF30A000A0152008831687008312201696
:1003D0002008831687000C30930028308312940085
:1003E00083169413141301308312A4000830A5005F
:1003F000A801A70183161F149F141F159F11073012
:100400009C0083138312A601201120088316870005
:10041000831207110C3097000030F8000638920064
:10042000FF3083169200831295014E30AB001030DE
:10043000AC000230AD00DF280130AF00B0002B214E
:100440000C3003178D0000308F0003138721043018
:10045000AB00FA30AF004320AB0B292AD520C830BF
:10046000AF0043200130AF00B0002B211330031741
:100470008D0000308F00031387210130AF00023060
:10048000B0002B21193003178D0000308F000313AB
:1004900087210430AB00FA30AF004320AB0B4B2A6E
:1004A000D520A901831606148312061C652A09307B
:1004B000A9000130AF00B0002B21203003178D00C0
:1004C00000308F00031387218A2A83168614831233
:1004D000861C782A1330A9000130AF00B0002B2110
:1004E000293003178D0000308F00031387218A2ADB
:1004F000831606158312061D8A2A3230A9000130A0
:10050000AF00B0002B21323003178D0000308F0078
:1005100003138721831606148312061C942A83165C
:10052000861583128619A82A831686148312861CC0
:100530009E2A8316861583128619A82A8316061505
:100540008312061DE92A831686158312861DE92A61
:10055000AA012A08023C031CE62AD5200130AF007C
:10056000B0002B213B3003178D0000308F000313A8
:1005700087210130AF000230B0002B2101302A0763
:10058000303EAB00AE006221290895000630AB007A
:10059000FA30AF004320AB0BC82A95010230AB0004
:1005A000FA30AF004320AB0BD02A83168810831299
:1005B00088140830AB00FA30AF004320AB0BDB2AC5
:1005C0008316881083128810AA0AA92AD520E92A3E
:0805D0008A2A9501512A6300FB
:02400E00723FFF
:00000001FF
;PIC16F877A
;CRC=AE23  CREATED="31-Oct-24 08:31"
